{
  "transactions": [
    {
      "hash": "0xfebb34b213ac3b8d92cc788b507eef7c484a33dcfb0d408116c7c23d8a05303d",
      "transactionType": "CALL",
      "contractName": null,
      "contractAddress": "0xb0c4af27bc604724b9692463e6a6801ecad61375",
      "function": "safeMint(address)",
      "arguments": [
        "0x8738ec02aD2C99974128014B77d7c8F92F60e454"
      ],
      "transaction": {
        "from": "0x5cdc9010d01d6744dd9213a0e28aa780210ec544",
        "to": "0xb0c4af27bc604724b9692463e6a6801ecad61375",
        "gas": "0x1b4fb",
        "value": "0x0",
        "input": "0x40d097c30000000000000000000000008738ec02ad2c99974128014b77d7c8f92f60e454",
        "nonce": "0x27",
        "chainId": "0x10ca7"
      },
      "additionalContracts": [],
      "isFixedGasLimit": false
    }
  ],
  "receipts": [],
  "libraries": [],
  "pending": [
    "0xfebb34b213ac3b8d92cc788b507eef7c484a33dcfb0d408116c7c23d8a05303d"
  ],
  "returns": {},
  "timestamp": 1724383880,
  "chain": 68775,
  "commit": "4c987ce"
}