{
  "transactions": [
    {
      "hash": "0x31884132dfc696cdbf8e68a69ea788c9decd811514ce97eca6eba4579f438b5b",
      "transactionType": "CALL",
      "contractName": null,
      "contractAddress": "0x662a8cbf681774654d5d0c441fb8333e3b2e5c2e",
      "function": "safeMint(address)",
      "arguments": [
        "0x3FE84540d841e718634115b2EAae60B15B4f1C01"
      ],
      "transaction": {
        "from": "0x5cdc9010d01d6744dd9213a0e28aa780210ec544",
        "to": "0x662a8cbf681774654d5d0c441fb8333e3b2e5c2e",
        "gas": "0x1b4fb",
        "value": "0x0",
        "input": "0x40d097c30000000000000000000000003fe84540d841e718634115b2eaae60b15b4f1c01",
        "nonce": "0x4d",
        "chainId": "0x10ca7"
      },
      "additionalContracts": [],
      "isFixedGasLimit": false
    }
  ],
  "receipts": [],
  "libraries": [],
  "pending": [
    "0x31884132dfc696cdbf8e68a69ea788c9decd811514ce97eca6eba4579f438b5b"
  ],
  "returns": {},
  "timestamp": 1725525447,
  "chain": 68775,
  "commit": "19919eb"
}