{
  "transactions": [
    {
      "hash": "0xa176bed80c43af3b59afc131b96a678a88917a2e677c6af66eccabe6109170ca",
      "transactionType": "CALL",
      "contractName": null,
      "contractAddress": "0x662a8cbf681774654d5d0c441fb8333e3b2e5c2e",
      "function": "safeMint(address)",
      "arguments": [
        "0x9454F56EA40073dA22519c37Fa0152B9B0F66eE0"
      ],
      "transaction": {
        "from": "0x5cdc9010d01d6744dd9213a0e28aa780210ec544",
        "to": "0x662a8cbf681774654d5d0c441fb8333e3b2e5c2e",
        "gas": "0x15339",
        "value": "0x0",
        "input": "0x40d097c30000000000000000000000009454f56ea40073da22519c37fa0152b9b0f66ee0",
        "nonce": "0x62",
        "chainId": "0x10ca7"
      },
      "additionalContracts": [],
      "isFixedGasLimit": false
    }
  ],
  "receipts": [],
  "libraries": [],
  "pending": [
    "0xa176bed80c43af3b59afc131b96a678a88917a2e677c6af66eccabe6109170ca"
  ],
  "returns": {},
  "timestamp": 1725806574,
  "chain": 68775,
  "commit": "4ed2d25"
}