{
  "transactions": [
    {
      "hash": "0x253e55b44c4258a35a4310930cfb19a5dcd183685d6cc8b2ecf09fafd95ded31",
      "transactionType": "CALL",
      "contractName": null,
      "contractAddress": "0x59037d62a581e963b6ed6e70fd1e985f205573dc",
      "function": "safeMint(address)",
      "arguments": [
        "0x3FE84540d841e718634115b2EAae60B15B4f1C01"
      ],
      "transaction": {
        "from": "0x5cdc9010d01d6744dd9213a0e28aa780210ec544",
        "to": "0x59037d62a581e963b6ed6e70fd1e985f205573dc",
        "gas": "0x1f8f8",
        "value": "0x0",
        "input": "0x40d097c30000000000000000000000003fe84540d841e718634115b2eaae60b15b4f1c01",
        "nonce": "0x51",
        "chainId": "0x10ca7"
      },
      "additionalContracts": [],
      "isFixedGasLimit": false
    }
  ],
  "receipts": [],
  "libraries": [],
  "pending": [
    "0x253e55b44c4258a35a4310930cfb19a5dcd183685d6cc8b2ecf09fafd95ded31"
  ],
  "returns": {},
  "timestamp": 1725628318,
  "chain": 68775,
  "commit": "19919eb"
}