{
  "transactions": [
    {
      "hash": "0x19a6f3b3fc2ef06b9deffb0b4f6f6087e6752dd6bd2ed3296595d05505bf097f",
      "transactionType": "CALL",
      "contractName": null,
      "contractAddress": "0xaaf6a734114437b719c28cfd44c0b2b515ed29be",
      "function": "mint(address,uint256)",
      "arguments": [
        "0xbb849Ab7F144D82323b46F5266b295CdB9BF4959",
        "1000000000000000000000000000"
      ],
      "transaction": {
        "from": "0x5cdc9010d01d6744dd9213a0e28aa780210ec544",
        "to": "0xaaf6a734114437b719c28cfd44c0b2b515ed29be",
        "gas": "0xc3b4",
        "value": "0x0",
        "input": "0x40c10f19000000000000000000000000bb849ab7f144d82323b46f5266b295cdb9bf49590000000000000000000000000000000000000000033b2e3c9fd0803ce8000000",
        "nonce": "0x45",
        "chainId": "0x10ca7"
      },
      "additionalContracts": [],
      "isFixedGasLimit": false
    }
  ],
  "receipts": [],
  "libraries": [],
  "pending": [
    "0x19a6f3b3fc2ef06b9deffb0b4f6f6087e6752dd6bd2ed3296595d05505bf097f"
  ],
  "returns": {},
  "timestamp": 1725460370,
  "chain": 68775,
  "commit": "19919eb"
}