{
  "transactions": [
    {
      "hash": "0x1f6703bca6ae35c705ace54db845caa2d16a201bf60c06b988fb9f92dd0a6834",
      "transactionType": "CALL",
      "contractName": null,
      "contractAddress": "0x662a8cbf681774654d5d0c441fb8333e3b2e5c2e",
      "function": "safeMint(address)",
      "arguments": [
        "0x04cD5d7eB3Fa481F7a5d0ecFc1C26bC98f8ba37e"
      ],
      "transaction": {
        "from": "0x5cdc9010d01d6744dd9213a0e28aa780210ec544",
        "to": "0x662a8cbf681774654d5d0c441fb8333e3b2e5c2e",
        "gas": "0x14070",
        "value": "0x0",
        "input": "0x40d097c300000000000000000000000004cd5d7eb3fa481f7a5d0ecfc1c26bc98f8ba37e",
        "nonce": "0x60",
        "chainId": "0x10ca7"
      },
      "additionalContracts": [],
      "isFixedGasLimit": false
    }
  ],
  "receipts": [],
  "libraries": [],
  "pending": [
    "0x1f6703bca6ae35c705ace54db845caa2d16a201bf60c06b988fb9f92dd0a6834"
  ],
  "returns": {},
  "timestamp": 1725806519,
  "chain": 68775,
  "commit": "4ed2d25"
}