{
  "transactions": [
    {
      "hash": "0xd558b11ae084c5d7b493b129a26fb0a80414d870fb7ac223da3fd095adb1870a",
      "transactionType": "CALL",
      "contractName": null,
      "contractAddress": "0x662a8cbf681774654d5d0c441fb8333e3b2e5c2e",
      "function": "safeMint(address)",
      "arguments": [
        "0xa867D3F350cbc4eD3FF48cc1B92C1825002B64eC"
      ],
      "transaction": {
        "from": "0x5cdc9010d01d6744dd9213a0e28aa780210ec544",
        "to": "0x662a8cbf681774654d5d0c441fb8333e3b2e5c2e",
        "gas": "0x15339",
        "value": "0x0",
        "input": "0x40d097c3000000000000000000000000a867d3f350cbc4ed3ff48cc1b92c1825002b64ec",
        "nonce": "0x32",
        "chainId": "0x10ca7"
      },
      "additionalContracts": [],
      "isFixedGasLimit": false
    }
  ],
  "receipts": [],
  "libraries": [],
  "pending": [
    "0xd558b11ae084c5d7b493b129a26fb0a80414d870fb7ac223da3fd095adb1870a"
  ],
  "returns": {},
  "timestamp": 1724862575,
  "chain": 68775,
  "commit": "4c987ce"
}