{
  "transactions": [
    {
      "hash": "0xba81fedced142c6cda9ca012be97a49d0d08484bb82890647f2d563eeb12a937",
      "transactionType": "CALL",
      "contractName": null,
      "contractAddress": "0x59037d62a581e963b6ed6e70fd1e985f205573dc",
      "function": "safeMint(address)",
      "arguments": [
        "0x04cD5d7eB3Fa481F7a5d0ecFc1C26bC98f8ba37e"
      ],
      "transaction": {
        "from": "0x5cdc9010d01d6744dd9213a0e28aa780210ec544",
        "to": "0x59037d62a581e963b6ed6e70fd1e985f205573dc",
        "gas": "0x1b4fb",
        "value": "0x0",
        "input": "0x40d097c300000000000000000000000004cd5d7eb3fa481f7a5d0ecfc1c26bc98f8ba37e",
        "nonce": "0x5b",
        "chainId": "0x10ca7"
      },
      "additionalContracts": [],
      "isFixedGasLimit": false
    }
  ],
  "receipts": [],
  "libraries": [],
  "pending": [
    "0xba81fedced142c6cda9ca012be97a49d0d08484bb82890647f2d563eeb12a937"
  ],
  "returns": {},
  "timestamp": 1725628811,
  "chain": 68775,
  "commit": "19919eb"
}