{
  "transactions": [
    {
      "hash": null,
      "transactionType": "CALL",
      "contractName": null,
      "contractAddress": "0xaa3fdeb44b7bb1c0a366685c0a10b1a2aea6548c",
      "function": "mint(address,uint256)",
      "arguments": [
        "0x3336a4cB9cd9B2cC9f32A3d7931b2540e7516c48",
        "1000000000000000000000"
      ],
      "transaction": {
        "from": "0x5cdc9010d01d6744dd9213a0e28aa780210ec544",
        "to": "0xaa3fdeb44b7bb1c0a366685c0a10b1a2aea6548c",
        "gas": "0xc391",
        "value": "0x0",
        "input": "0x40c10f190000000000000000000000003336a4cb9cd9b2cc9f32a3d7931b2540e7516c4800000000000000000000000000000000000000000000003635c9adc5dea00000",
        "nonce": "0x37",
        "chainId": "0x10ca7"
      },
      "additionalContracts": [],
      "isFixedGasLimit": false
    }
  ],
  "receipts": [],
  "libraries": [],
  "pending": [],
  "returns": {},
  "timestamp": 1724925631,
  "chain": 68775,
  "commit": "19919eb"
}