{
  "transactions": [
    {
      "hash": "0xc50ff8f9f04d8d4d74e5edc9dea863a1a981dbd68e47892b42c5ecce2fc89f24",
      "transactionType": "CALL",
      "contractName": null,
      "contractAddress": "0x59037d62a581e963b6ed6e70fd1e985f205573dc",
      "function": "safeMint(address)",
      "arguments": [
        "0xc1Fe4Dd2bb295f1283b08208f8a27f37e2E0C876"
      ],
      "transaction": {
        "from": "0x5cdc9010d01d6744dd9213a0e28aa780210ec544",
        "to": "0x59037d62a581e963b6ed6e70fd1e985f205573dc",
        "gas": "0x14070",
        "value": "0x0",
        "input": "0x40d097c3000000000000000000000000c1fe4dd2bb295f1283b08208f8a27f37e2e0c876",
        "nonce": "0x55",
        "chainId": "0x10ca7"
      },
      "additionalContracts": [],
      "isFixedGasLimit": false
    }
  ],
  "receipts": [],
  "libraries": [],
  "pending": [
    "0xc50ff8f9f04d8d4d74e5edc9dea863a1a981dbd68e47892b42c5ecce2fc89f24"
  ],
  "returns": {},
  "timestamp": 1725628478,
  "chain": 68775,
  "commit": "19919eb"
}