{
  "transactions": [
    {
      "hash": "0x5fefc208d68c8c308c0dd226ad4eaf322ff1f48227ef8e879f5c6d48c91a476a",
      "transactionType": "CALL",
      "contractName": null,
      "contractAddress": "0xfc7716eb39b662d380fcfe0b193609b4c6ad0509",
      "function": "safeMint(address)",
      "arguments": [
        "0x3FE84540d841e718634115b2EAae60B15B4f1C01"
      ],
      "transaction": {
        "from": "0x5cdc9010d01d6744dd9213a0e28aa780210ec544",
        "to": "0xfc7716eb39b662d380fcfe0b193609b4c6ad0509",
        "gas": "0x1f8f8",
        "value": "0x0",
        "input": "0x40d097c30000000000000000000000003fe84540d841e718634115b2eaae60b15b4f1c01",
        "nonce": "0x50",
        "chainId": "0x10ca7"
      },
      "additionalContracts": [],
      "isFixedGasLimit": false
    }
  ],
  "receipts": [],
  "libraries": [],
  "pending": [
    "0x5fefc208d68c8c308c0dd226ad4eaf322ff1f48227ef8e879f5c6d48c91a476a"
  ],
  "returns": {},
  "timestamp": 1725628288,
  "chain": 68775,
  "commit": "19919eb"
}