{
  "transactions": [
    {
      "hash": "0x0e6c77356b574d53e59369b77caa7cc79b93d1904ea18e9b7de1008a1c3e8c95",
      "transactionType": "CALL",
      "contractName": null,
      "contractAddress": "0xfc7716eb39b662d380fcfe0b193609b4c6ad0509",
      "function": "safeMint(address)",
      "arguments": [
        "0x04cD5d7eB3Fa481F7a5d0ecFc1C26bC98f8ba37e"
      ],
      "transaction": {
        "from": "0x5cdc9010d01d6744dd9213a0e28aa780210ec544",
        "to": "0xfc7716eb39b662d380fcfe0b193609b4c6ad0509",
        "gas": "0x1b4fb",
        "value": "0x0",
        "input": "0x40d097c300000000000000000000000004cd5d7eb3fa481f7a5d0ecfc1c26bc98f8ba37e",
        "nonce": "0x58",
        "chainId": "0x10ca7"
      },
      "additionalContracts": [],
      "isFixedGasLimit": false
    }
  ],
  "receipts": [],
  "libraries": [],
  "pending": [
    "0x0e6c77356b574d53e59369b77caa7cc79b93d1904ea18e9b7de1008a1c3e8c95"
  ],
  "returns": {},
  "timestamp": 1725628765,
  "chain": 68775,
  "commit": "19919eb"
}