{
  "transactions": [
    {
      "hash": "0x30e93faa5fe98bfc7a57e4782f754fb70f88eb358678f16cf31e3c07b47db3d3",
      "transactionType": "CALL",
      "contractName": null,
      "contractAddress": "0xfc7716eb39b662d380fcfe0b193609b4c6ad0509",
      "function": "safeMint(address)",
      "arguments": [
        "0xc1Fe4Dd2bb295f1283b08208f8a27f37e2E0C876"
      ],
      "transaction": {
        "from": "0x5cdc9010d01d6744dd9213a0e28aa780210ec544",
        "to": "0xfc7716eb39b662d380fcfe0b193609b4c6ad0509",
        "gas": "0x14070",
        "value": "0x0",
        "input": "0x40d097c3000000000000000000000000c1fe4dd2bb295f1283b08208f8a27f37e2e0c876",
        "nonce": "0x54",
        "chainId": "0x10ca7"
      },
      "additionalContracts": [],
      "isFixedGasLimit": false
    }
  ],
  "receipts": [],
  "libraries": [],
  "pending": [
    "0x30e93faa5fe98bfc7a57e4782f754fb70f88eb358678f16cf31e3c07b47db3d3"
  ],
  "returns": {},
  "timestamp": 1725628460,
  "chain": 68775,
  "commit": "19919eb"
}