{
  "transactions": [
    {
      "hash": "0x61c9d2e80779d6c5087b998420eac6c200b14b31a5bb256d9dc0ab9d83c10ea6",
      "transactionType": "CALL",
      "contractName": null,
      "contractAddress": "0x35b9b2b23f01452eab2095d074966f99a1d1aad0",
      "function": "mint(address,uint256)",
      "arguments": [
        "0xbb849Ab7F144D82323b46F5266b295CdB9BF4959",
        "10000000000"
      ],
      "transaction": {
        "from": "0x5cdc9010d01d6744dd9213a0e28aa780210ec544",
        "to": "0x35b9b2b23f01452eab2095d074966f99a1d1aad0",
        "gas": "0x1250d",
        "value": "0x0",
        "input": "0x40c10f19000000000000000000000000bb849ab7f144d82323b46f5266b295cdb9bf495900000000000000000000000000000000000000000000000000000002540be400",
        "nonce": "0x49",
        "chainId": "0x10ca7"
      },
      "additionalContracts": [],
      "isFixedGasLimit": false
    }
  ],
  "receipts": [],
  "libraries": [],
  "pending": [
    "0x61c9d2e80779d6c5087b998420eac6c200b14b31a5bb256d9dc0ab9d83c10ea6"
  ],
  "returns": {},
  "timestamp": 1725460720,
  "chain": 68775,
  "commit": "19919eb"
}