{
  "transactions": [
    {
      "hash": "0x9a992d27c2b727889728b50f4753d418d58243869e76ddcd34d1f781f28c6810",
      "transactionType": "CALL",
      "contractName": null,
      "contractAddress": "0x59037d62a581e963b6ed6e70fd1e985f205573dc",
      "function": "safeMint(address)",
      "arguments": [
        "0xc1Fe4Dd2bb295f1283b08208f8a27f37e2E0C876"
      ],
      "transaction": {
        "from": "0x5cdc9010d01d6744dd9213a0e28aa780210ec544",
        "to": "0x59037d62a581e963b6ed6e70fd1e985f205573dc",
        "gas": "0x14070",
        "value": "0x0",
        "input": "0x40d097c3000000000000000000000000c1fe4dd2bb295f1283b08208f8a27f37e2e0c876",
        "nonce": "0x57",
        "chainId": "0x10ca7"
      },
      "additionalContracts": [],
      "isFixedGasLimit": false
    }
  ],
  "receipts": [],
  "libraries": [],
  "pending": [
    "0x9a992d27c2b727889728b50f4753d418d58243869e76ddcd34d1f781f28c6810"
  ],
  "returns": {},
  "timestamp": 1725628508,
  "chain": 68775,
  "commit": "19919eb"
}