{
  "transactions": [
    {
      "hash": "0xa5060cb7449649728ddf3f12b8d6de8688b23d4402bad04c46f5b8cab7fbf8d0",
      "transactionType": "CALL",
      "contractName": null,
      "contractAddress": "0x662a8cbf681774654d5d0c441fb8333e3b2e5c2e",
      "function": "safeMint(address)",
      "arguments": [
        "0xbb849Ab7F144D82323b46F5266b295CdB9BF4959"
      ],
      "transaction": {
        "from": "0x5cdc9010d01d6744dd9213a0e28aa780210ec544",
        "to": "0x662a8cbf681774654d5d0c441fb8333e3b2e5c2e",
        "gas": "0x14070",
        "value": "0x0",
        "input": "0x40d097c3000000000000000000000000bb849ab7f144d82323b46f5266b295cdb9bf4959",
        "nonce": "0x4b",
        "chainId": "0x10ca7"
      },
      "additionalContracts": [],
      "isFixedGasLimit": false
    }
  ],
  "receipts": [],
  "libraries": [],
  "pending": [
    "0xa5060cb7449649728ddf3f12b8d6de8688b23d4402bad04c46f5b8cab7fbf8d0"
  ],
  "returns": {},
  "timestamp": 1725460819,
  "chain": 68775,
  "commit": "19919eb"
}