{
  "transactions": [
    {
      "hash": "0xab427cf4880a7139dc9cbb490118d1cbf53cb26209684c42bea4de89271e0557",
      "transactionType": "CALL",
      "contractName": null,
      "contractAddress": "0xf2609e2e219e144c1a99f111f8c5f5e9756e1362",
      "function": "safeMint(address)",
      "arguments": [
        "0x15dA197b6A4907B595A704A5b9692e53a7577658"
      ],
      "transaction": {
        "from": "0x5cdc9010d01d6744dd9213a0e28aa780210ec544",
        "to": "0xf2609e2e219e144c1a99f111f8c5f5e9756e1362",
        "gas": "0x14070",
        "value": "0x0",
        "input": "0x40d097c300000000000000000000000015da197b6a4907b595a704a5b9692e53a7577658",
        "nonce": "0x83",
        "chainId": "0xaa36a7"
      },
      "additionalContracts": [],
      "isFixedGasLimit": false
    }
  ],
  "receipts": [
    {
      "status": "0x1",
      "cumulativeGasUsed": "0x6524d1",
      "logs": [
        {
          "address": "0xf2609e2e219e144c1a99f111f8c5f5e9756e1362",
          "topics": [
            "0xddf252ad1be2c89b69c2b068fc378daa952ba7f163c4a11628f55a4df523b3ef",
            "0x0000000000000000000000000000000000000000000000000000000000000000",
            "0x00000000000000000000000015da197b6a4907b595a704a5b9692e53a7577658",
            "0x000000000000000000000000000000000000000000000000000000000000000e"
          ],
          "data": "0x",
          "blockHash": "0x2808caef252a127f22755f0d24b8322117f5d8f60cd51c821ffba92d8aef70a7",
          "blockNumber": "0x63467d",
          "transactionHash": "0xab427cf4880a7139dc9cbb490118d1cbf53cb26209684c42bea4de89271e0557",
          "transactionIndex": "0x47",
          "logIndex": "0x74",
          "removed": false
        }
      ],
      "logsBloom": "0x00000000000600000000000800000000000000000000000000000000000000000000000000000000000000000000000001000000000000000000000000000000000000000000000800000008000000000000000000000000000000000000000000000100020000000000000000000800000000000000000000000010000000000000000000000000000000000000000008000000000000000000000000000000000000000000000000000000000000000000000200000020000000000000000000000002000000000000000000000000000000000000000000000000000020000000000000000000000000000000000000000000000000000000000000000000",
      "type": "0x2",
      "transactionHash": "0xab427cf4880a7139dc9cbb490118d1cbf53cb26209684c42bea4de89271e0557",
      "transactionIndex": "0x47",
      "blockHash": "0x2808caef252a127f22755f0d24b8322117f5d8f60cd51c821ffba92d8aef70a7",
      "blockNumber": "0x63467d",
      "gasUsed": "0xe7ff",
      "effectiveGasPrice": "0x59b988d8a",
      "from": "0x5cdc9010d01d6744dd9213a0e28aa780210ec544",
      "to": "0xf2609e2e219e144c1a99f111f8c5f5e9756e1362",
      "contractAddress": null
    }
  ],
  "libraries": [],
  "pending": [],
  "returns": {},
  "timestamp": 1723741792,
  "chain": 11155111,
  "commit": "e058958"
}