{
  "transactions": [
    {
      "hash": "0x1bf04abd0ce712b8f18792617d121c77e0d1b294da362ffa11dbec4d420b3493",
      "transactionType": "CALL",
      "contractName": "TestAsset",
      "contractAddress": "0xf2a58f210956698d5fb3327348801dccbbc7f317",
      "function": "mint(address,uint256)",
      "arguments": [
        "0x6201c72206628b0a8423B505a6f94F2d77654d5b",
        "100000000000000000000"
      ],
      "transaction": {
        "from": "0x5cdc9010d01d6744dd9213a0e28aa780210ec544",
        "to": "0xf2a58f210956698d5fb3327348801dccbbc7f317",
        "gas": "0x114f7",
        "value": "0x0",
        "input": "0x40c10f190000000000000000000000006201c72206628b0a8423b505a6f94f2d77654d5b0000000000000000000000000000000000000000000000056bc75e2d63100000",
        "nonce": "0x6b",
        "chainId": "0xaa36a7"
      },
      "additionalContracts": [],
      "isFixedGasLimit": false
    }
  ],
  "receipts": [
    {
      "status": "0x1",
      "cumulativeGasUsed": "0xb7d135",
      "logs": [
        {
          "address": "0xf2a58f210956698d5fb3327348801dccbbc7f317",
          "topics": [
            "0xddf252ad1be2c89b69c2b068fc378daa952ba7f163c4a11628f55a4df523b3ef",
            "0x0000000000000000000000000000000000000000000000000000000000000000",
            "0x0000000000000000000000006201c72206628b0a8423b505a6f94f2d77654d5b"
          ],
          "data": "0x0000000000000000000000000000000000000000000000056bc75e2d63100000",
          "blockHash": "0xbe5a915718522e4213efbe63dcd60e31aacd7cb8640963f2aff4630b52d46721",
          "blockNumber": "0x62f18a",
          "transactionHash": "0x1bf04abd0ce712b8f18792617d121c77e0d1b294da362ffa11dbec4d420b3493",
          "transactionIndex": "0x3d",
          "logIndex": "0x86",
          "removed": false
        }
      ],
      "logsBloom": "0x00000000000000000000000000000000000120000000000000000000000100000000000000000000000000000000000000000000000000008000000000000000000000000000000000000008000000000000000000000000000000000000000000000000020000000000000000000800000000000000000000000010000000000000000000000000000000000000004000000000000000000000000000000000000000000000000000000000000000000000000000000000000000000000000000000002000000000000000000000000000000000000000000000000000020000000000000000000000000000000000000000000000000000000000000000000",
      "type": "0x2",
      "transactionHash": "0x1bf04abd0ce712b8f18792617d121c77e0d1b294da362ffa11dbec4d420b3493",
      "transactionIndex": "0x3d",
      "blockHash": "0xbe5a915718522e4213efbe63dcd60e31aacd7cb8640963f2aff4630b52d46721",
      "blockNumber": "0x62f18a",
      "gasUsed": "0xc885",
      "effectiveGasPrice": "0x4b1cf0ca1",
      "from": "0x5cdc9010d01d6744dd9213a0e28aa780210ec544",
      "to": "0xf2a58f210956698d5fb3327348801dccbbc7f317",
      "contractAddress": null
    }
  ],
  "libraries": [],
  "pending": [],
  "returns": {},
  "timestamp": 1723445797,
  "chain": 11155111,
  "commit": "e204481"
}