{
  "transactions": [
    {
      "hash": "0x589cf018b9917910ba707b4e319b0f9d9ae9a25f28b1e8fae6aa9a67b13a644c",
      "transactionType": "CALL",
      "contractName": null,
      "contractAddress": "0xf2609e2e219e144c1a99f111f8c5f5e9756e1362",
      "function": "safeMint(address)",
      "arguments": [
        "0x15dA197b6A4907B595A704A5b9692e53a7577658"
      ],
      "transaction": {
        "from": "0x5cdc9010d01d6744dd9213a0e28aa780210ec544",
        "to": "0xf2609e2e219e144c1a99f111f8c5f5e9756e1362",
        "gas": "0x14070",
        "value": "0x0",
        "input": "0x40d097c300000000000000000000000015da197b6a4907b595a704a5b9692e53a7577658",
        "nonce": "0x7b",
        "chainId": "0xaa36a7"
      },
      "additionalContracts": [],
      "isFixedGasLimit": false
    }
  ],
  "receipts": [
    {
      "status": "0x1",
      "cumulativeGasUsed": "0xe45bcf",
      "logs": [
        {
          "address": "0xf2609e2e219e144c1a99f111f8c5f5e9756e1362",
          "topics": [
            "0xddf252ad1be2c89b69c2b068fc378daa952ba7f163c4a11628f55a4df523b3ef",
            "0x0000000000000000000000000000000000000000000000000000000000000000",
            "0x00000000000000000000000015da197b6a4907b595a704a5b9692e53a7577658",
            "0x0000000000000000000000000000000000000000000000000000000000000006"
          ],
          "data": "0x",
          "blockHash": "0xce574c1d65bfb92148f9c82c4fc5cf77b3b566a516baabb31c3590099c09ddad",
          "blockNumber": "0x6344e1",
          "transactionHash": "0x589cf018b9917910ba707b4e319b0f9d9ae9a25f28b1e8fae6aa9a67b13a644c",
          "transactionIndex": "0x5c",
          "logIndex": "0x93",
          "removed": false
        }
      ],
      "logsBloom": "0x00000000000600000000000800000000000000000000000000000000000000000000000000000000000000000000000001000000000400000000000000000000000000000000000000000008000000000000000000000000000000000000000000000100020000000000000000000800000000000000000000000010000000000000000400000000000000000000000000000000000000000000000000000000000000000000000000000000000000000000000200000000000000080000000000000002000000000000000000000000000000000000000000000000000020000000000000000000000000000000000000000000000000000000000000000000",
      "type": "0x2",
      "transactionHash": "0x589cf018b9917910ba707b4e319b0f9d9ae9a25f28b1e8fae6aa9a67b13a644c",
      "transactionIndex": "0x5c",
      "blockHash": "0xce574c1d65bfb92148f9c82c4fc5cf77b3b566a516baabb31c3590099c09ddad",
      "blockNumber": "0x6344e1",
      "gasUsed": "0xe7ff",
      "effectiveGasPrice": "0x1b85ea136",
      "from": "0x5cdc9010d01d6744dd9213a0e28aa780210ec544",
      "to": "0xf2609e2e219e144c1a99f111f8c5f5e9756e1362",
      "contractAddress": null
    }
  ],
  "libraries": [],
  "pending": [],
  "returns": {},
  "timestamp": 1723735698,
  "chain": 11155111,
  "commit": "e058958"
}