{
  "transactions": [
    {
      "hash": "0xf40ec93e99c0f2bd29ef772fe958c74038e594069d07048f506fe0623fecdf71",
      "transactionType": "CALL",
      "contractName": null,
      "contractAddress": "0xf2609e2e219e144c1a99f111f8c5f5e9756e1362",
      "function": "safeMint(address)",
      "arguments": [
        "0x15dA197b6A4907B595A704A5b9692e53a7577658"
      ],
      "transaction": {
        "from": "0x5cdc9010d01d6744dd9213a0e28aa780210ec544",
        "to": "0xf2609e2e219e144c1a99f111f8c5f5e9756e1362",
        "gas": "0x14070",
        "value": "0x0",
        "input": "0x40d097c300000000000000000000000015da197b6a4907b595a704a5b9692e53a7577658",
        "nonce": "0x77",
        "chainId": "0xaa36a7"
      },
      "additionalContracts": [],
      "isFixedGasLimit": false
    }
  ],
  "receipts": [
    {
      "status": "0x1",
      "cumulativeGasUsed": "0x5110c7",
      "logs": [
        {
          "address": "0xf2609e2e219e144c1a99f111f8c5f5e9756e1362",
          "topics": [
            "0xddf252ad1be2c89b69c2b068fc378daa952ba7f163c4a11628f55a4df523b3ef",
            "0x0000000000000000000000000000000000000000000000000000000000000000",
            "0x00000000000000000000000015da197b6a4907b595a704a5b9692e53a7577658",
            "0x0000000000000000000000000000000000000000000000000000000000000002"
          ],
          "data": "0x",
          "blockHash": "0x45114950393089895a7605572ca444b2525d9737618813d6f8c2c0fc709268ca",
          "blockNumber": "0x634212",
          "transactionHash": "0xf40ec93e99c0f2bd29ef772fe958c74038e594069d07048f506fe0623fecdf71",
          "transactionIndex": "0x26",
          "logIndex": "0x49",
          "removed": false
        }
      ],
      "logsBloom": "0x04000000000600000000000800000000000000000000000000000000000000000000000000000000000000000000000001000000000000000000000000000000000000000000000000000008000000000000000000000000000000000000000000000100020000000000000000000800000000000000000000000010000000000000000000000000000000000000000000000000000000000000000000000000000000000000000000000100000000000000000200000000000000000000000000000002000000000000000000000000000000000000000000000000000020000000000000000000000000000000000000000000008000000000000000000000",
      "type": "0x2",
      "transactionHash": "0xf40ec93e99c0f2bd29ef772fe958c74038e594069d07048f506fe0623fecdf71",
      "transactionIndex": "0x26",
      "blockHash": "0x45114950393089895a7605572ca444b2525d9737618813d6f8c2c0fc709268ca",
      "blockNumber": "0x634212",
      "gasUsed": "0xe7ff",
      "effectiveGasPrice": "0xbde2747b",
      "from": "0x5cdc9010d01d6744dd9213a0e28aa780210ec544",
      "to": "0xf2609e2e219e144c1a99f111f8c5f5e9756e1362",
      "contractAddress": null
    }
  ],
  "libraries": [],
  "pending": [],
  "returns": {},
  "timestamp": 1723725605,
  "chain": 11155111,
  "commit": "e204481"
}