{
  "transactions": [
    {
      "hash": "0xe25e3ff80f29cb90bbfca668839a64f881314f67faac95bef1172c5343acc0bc",
      "transactionType": "CALL",
      "contractName": null,
      "contractAddress": "0xa241dd99380727f45ab30f5902d505bc095fb4a8",
      "function": "mint(address,uint256)",
      "arguments": [
        "0x15dA197b6A4907B595A704A5b9692e53a7577658",
        "100000000000000000000"
      ],
      "transaction": {
        "from": "0x5cdc9010d01d6744dd9213a0e28aa780210ec544",
        "to": "0xa241dd99380727f45ab30f5902d505bc095fb4a8",
        "gas": "0x114f7",
        "value": "0x0",
        "input": "0x40c10f1900000000000000000000000015da197b6a4907b595a704a5b9692e53a75776580000000000000000000000000000000000000000000000056bc75e2d63100000",
        "nonce": "0x70",
        "chainId": "0xaa36a7"
      },
      "additionalContracts": [],
      "isFixedGasLimit": false
    }
  ],
  "receipts": [
    {
      "status": "0x1",
      "cumulativeGasUsed": "0x174337a",
      "logs": [
        {
          "address": "0xa241dd99380727f45ab30f5902d505bc095fb4a8",
          "topics": [
            "0xddf252ad1be2c89b69c2b068fc378daa952ba7f163c4a11628f55a4df523b3ef",
            "0x0000000000000000000000000000000000000000000000000000000000000000",
            "0x00000000000000000000000015da197b6a4907b595a704a5b9692e53a7577658"
          ],
          "data": "0x0000000000000000000000000000000000000000000000056bc75e2d63100000",
          "blockHash": "0xec6385208e09a48bd09d303c4cf71d7c19d3c9f6c9b3c2ddf5b9b355d184e4ef",
          "blockNumber": "0x630a3a",
          "transactionHash": "0xe25e3ff80f29cb90bbfca668839a64f881314f67faac95bef1172c5343acc0bc",
          "transactionIndex": "0x2f",
          "logIndex": "0x90",
          "removed": false
        }
      ],
      "logsBloom": "0x00000000000400000000000800000000000000000000000000000000000000000000000000000000000000000000000000000000000000000000000000000000000000000000000000000008000000000000000000000000000000000000000000004100020000000000000000000800000000000000000000000010000000000000000000000000000000000000000000000000000000000000000000000000000000000000000008000000000000000010000000000000000000000000000000000002000000000000000000000000000000000000000000000000000020000000000000000000000000000000000000000000000000000000000000000000",
      "type": "0x2",
      "transactionHash": "0xe25e3ff80f29cb90bbfca668839a64f881314f67faac95bef1172c5343acc0bc",
      "transactionIndex": "0x2f",
      "blockHash": "0xec6385208e09a48bd09d303c4cf71d7c19d3c9f6c9b3c2ddf5b9b355d184e4ef",
      "blockNumber": "0x630a3a",
      "gasUsed": "0xc885",
      "effectiveGasPrice": "0x3db76ee13",
      "from": "0x5cdc9010d01d6744dd9213a0e28aa780210ec544",
      "to": "0xa241dd99380727f45ab30f5902d505bc095fb4a8",
      "contractAddress": null
    }
  ],
  "libraries": [],
  "pending": [],
  "returns": {},
  "timestamp": 1723531443,
  "chain": 11155111,
  "commit": "e204481"
}