{
  "transactions": [
    {
      "hash": "0x3c316c7fba3c1e96bbcbecbe75628369da36a6b1a98d3ee7186904370d9f7a62",
      "transactionType": "CALL",
      "contractName": null,
      "contractAddress": "0xf2a58f210956698d5fb3327348801dccbbc7f317",
      "function": "mint(address,uint256)",
      "arguments": [
        "0x5Cdc9010D01d6744Dd9213A0e28aa780210eC544",
        "100000000000000000000"
      ],
      "transaction": {
        "from": "0x5cdc9010d01d6744dd9213a0e28aa780210ec544",
        "to": "0xf2a58f210956698d5fb3327348801dccbbc7f317",
        "gas": "0x114f7",
        "value": "0x0",
        "input": "0x40c10f190000000000000000000000005cdc9010d01d6744dd9213a0e28aa780210ec5440000000000000000000000000000000000000000000000056bc75e2d63100000",
        "nonce": "0x6a",
        "chainId": "0xaa36a7"
      },
      "additionalContracts": [],
      "isFixedGasLimit": false
    }
  ],
  "receipts": [
    {
      "status": "0x1",
      "cumulativeGasUsed": "0xb2253a",
      "logs": [
        {
          "address": "0xf2a58f210956698d5fb3327348801dccbbc7f317",
          "topics": [
            "0xddf252ad1be2c89b69c2b068fc378daa952ba7f163c4a11628f55a4df523b3ef",
            "0x0000000000000000000000000000000000000000000000000000000000000000",
            "0x0000000000000000000000005cdc9010d01d6744dd9213a0e28aa780210ec544"
          ],
          "data": "0x0000000000000000000000000000000000000000000000056bc75e2d63100000",
          "blockHash": "0x97bf464b39d986e3b82277b3469b4915a821c5f0d104a34bf32058d614e35946",
          "blockNumber": "0x62b0b0",
          "transactionHash": "0x3c316c7fba3c1e96bbcbecbe75628369da36a6b1a98d3ee7186904370d9f7a62",
          "transactionIndex": "0x30",
          "logIndex": "0x98",
          "removed": false
        }
      ],
      "logsBloom": "0x00000000000000000000000000000000000000000000000000000000000100000200000000000000000000200000000000000000000000008000000000000000000000000000000000000008000000000000000000400000000000000000000000000000020000000000000000000800000000000000000000000010000000000000000000000000000000000000004000000000000000000000000000000000000000000000000000000000000000000000000000000000000000000000000000000002000000000000000000000000000000000000000000000000000020000000000000000000000000000000000000000000000000000000000000000000",
      "type": "0x2",
      "transactionHash": "0x3c316c7fba3c1e96bbcbecbe75628369da36a6b1a98d3ee7186904370d9f7a62",
      "transactionIndex": "0x30",
      "blockHash": "0x97bf464b39d986e3b82277b3469b4915a821c5f0d104a34bf32058d614e35946",
      "blockNumber": "0x62b0b0",
      "gasUsed": "0xc885",
      "effectiveGasPrice": "0x4a05a67f5",
      "from": "0x5cdc9010d01d6744dd9213a0e28aa780210ec544",
      "to": "0xf2a58f210956698d5fb3327348801dccbbc7f317",
      "contractAddress": null
    }
  ],
  "libraries": [],
  "pending": [],
  "returns": {},
  "timestamp": 1723218868,
  "chain": 11155111,
  "commit": "772ca82"
}