{
  "transactions": [
    {
      "hash": "0x1848b8dc78728c62511b190b7a0a5537b3bb5ce5c3e2d04d86d8bab91e2979a0",
      "transactionType": "CALL",
      "contractName": null,
      "contractAddress": "0xf2609e2e219e144c1a99f111f8c5f5e9756e1362",
      "function": "safeMint(address)",
      "arguments": [
        "0x15dA197b6A4907B595A704A5b9692e53a7577658"
      ],
      "transaction": {
        "from": "0x5cdc9010d01d6744dd9213a0e28aa780210ec544",
        "to": "0xf2609e2e219e144c1a99f111f8c5f5e9756e1362",
        "gas": "0x14070",
        "value": "0x0",
        "input": "0x40d097c300000000000000000000000015da197b6a4907b595a704a5b9692e53a7577658",
        "nonce": "0x7d",
        "chainId": "0xaa36a7"
      },
      "additionalContracts": [],
      "isFixedGasLimit": false
    }
  ],
  "receipts": [
    {
      "status": "0x1",
      "cumulativeGasUsed": "0x82550c",
      "logs": [
        {
          "address": "0xf2609e2e219e144c1a99f111f8c5f5e9756e1362",
          "topics": [
            "0xddf252ad1be2c89b69c2b068fc378daa952ba7f163c4a11628f55a4df523b3ef",
            "0x0000000000000000000000000000000000000000000000000000000000000000",
            "0x00000000000000000000000015da197b6a4907b595a704a5b9692e53a7577658",
            "0x0000000000000000000000000000000000000000000000000000000000000008"
          ],
          "data": "0x",
          "blockHash": "0xb381b56eff5f00a7778ad2b7e69f55a4e1ade49dcf9cc4e0da18cca607ce51af",
          "blockNumber": "0x6344fc",
          "transactionHash": "0x1848b8dc78728c62511b190b7a0a5537b3bb5ce5c3e2d04d86d8bab91e2979a0",
          "transactionIndex": "0x3e",
          "logIndex": "0x7e",
          "removed": false
        }
      ],
      "logsBloom": "0x00000000000600000000000800000000000000000000000000000000000000000000000000000000000000000000000001000000000080000000000000000000000000000000000000000008000000000000000000000000000000000000000000000100020000000000000000000800000000000000000000000010000000000080000000000000000000000000000000000000000000000000000000000000000000000000000000000000000000000000000200000000000000000000000040000002000000000000000000000000000000000000000000000000000020000000000000000000000000000000000000000000000000000000000000000000",
      "type": "0x2",
      "transactionHash": "0x1848b8dc78728c62511b190b7a0a5537b3bb5ce5c3e2d04d86d8bab91e2979a0",
      "transactionIndex": "0x3e",
      "blockHash": "0xb381b56eff5f00a7778ad2b7e69f55a4e1ade49dcf9cc4e0da18cca607ce51af",
      "blockNumber": "0x6344fc",
      "gasUsed": "0xe7ff",
      "effectiveGasPrice": "0x1c1888e2e",
      "from": "0x5cdc9010d01d6744dd9213a0e28aa780210ec544",
      "to": "0xf2609e2e219e144c1a99f111f8c5f5e9756e1362",
      "contractAddress": null
    }
  ],
  "libraries": [],
  "pending": [],
  "returns": {},
  "timestamp": 1723736138,
  "chain": 11155111,
  "commit": "e058958"
}