{
  "transactions": [
    {
      "hash": "0x48b48ada902b003485022ca36f51fdf27d36c526225cd43e13854c949a989c2c",
      "transactionType": "CALL",
      "contractName": null,
      "contractAddress": "0xa241dd99380727f45ab30f5902d505bc095fb4a8",
      "function": "mint(address,uint256)",
      "arguments": [
        "0x3AC83C7A7Ba137860fb7724F66Ddb512dd7C6489",
        "100000000000000000000"
      ],
      "transaction": {
        "from": "0x5cdc9010d01d6744dd9213a0e28aa780210ec544",
        "to": "0xa241dd99380727f45ab30f5902d505bc095fb4a8",
        "gas": "0x186f3",
        "value": "0x0",
        "input": "0x40c10f190000000000000000000000003ac83c7a7ba137860fb7724f66ddb512dd7c64890000000000000000000000000000000000000000000000056bc75e2d63100000",
        "nonce": "0x6e",
        "chainId": "0xaa36a7"
      },
      "additionalContracts": [],
      "isFixedGasLimit": false
    }
  ],
  "receipts": [
    {
      "status": "0x1",
      "cumulativeGasUsed": "0x157a434",
      "logs": [
        {
          "address": "0xa241dd99380727f45ab30f5902d505bc095fb4a8",
          "topics": [
            "0xddf252ad1be2c89b69c2b068fc378daa952ba7f163c4a11628f55a4df523b3ef",
            "0x0000000000000000000000000000000000000000000000000000000000000000",
            "0x0000000000000000000000003ac83c7a7ba137860fb7724f66ddb512dd7c6489"
          ],
          "data": "0x0000000000000000000000000000000000000000000000056bc75e2d63100000",
          "blockHash": "0x4eed902c823da20f783a682f52c3d9afb4fc7dac96f7aeb09e89a8ce8d6020ad",
          "blockNumber": "0x6308ca",
          "transactionHash": "0x48b48ada902b003485022ca36f51fdf27d36c526225cd43e13854c949a989c2c",
          "transactionIndex": "0x71",
          "logIndex": "0x17e",
          "removed": false
        }
      ],
      "logsBloom": "0x00000000000000000000000000000000000000000000000000000000000000000000000000000000000000000000000000000000000000000000000000000000000000000000000000000008000000000000000000000000000000000000000000004000020000100000000000000800000000000000000000000010000000000000000000000000000000000000000000000000000000000000000000000010000000000000000008000000000000000010000000000000000000000000000000000002000000000000000000000000000000000000000000000000000020000000000000000000000000000000000000080000000000000000000000000000",
      "type": "0x2",
      "transactionHash": "0x48b48ada902b003485022ca36f51fdf27d36c526225cd43e13854c949a989c2c",
      "transactionIndex": "0x71",
      "blockHash": "0x4eed902c823da20f783a682f52c3d9afb4fc7dac96f7aeb09e89a8ce8d6020ad",
      "blockNumber": "0x6308ca",
      "gasUsed": "0x10b51",
      "effectiveGasPrice": "0x3ed6cdbd9",
      "from": "0x5cdc9010d01d6744dd9213a0e28aa780210ec544",
      "to": "0xa241dd99380727f45ab30f5902d505bc095fb4a8",
      "contractAddress": null
    }
  ],
  "libraries": [],
  "pending": [],
  "returns": {},
  "timestamp": 1723526033,
  "chain": 11155111,
  "commit": "e204481"
}