{
  "transactions": [
    {
      "hash": "0x45ed0c0f242da5d0a91c53e20fdfbac92e22f195457f0f88e275371188063285",
      "transactionType": "CALL",
      "contractName": null,
      "contractAddress": "0xf2a58f210956698d5fb3327348801dccbbc7f317",
      "function": "mint(address,uint256)",
      "arguments": [
        "0x9302ce59d765FeE24D91aEa8d1A8629EF33b9856",
        "100000000000000000000"
      ],
      "transaction": {
        "from": "0x5cdc9010d01d6744dd9213a0e28aa780210ec544",
        "to": "0xf2a58f210956698d5fb3327348801dccbbc7f317",
        "gas": "0x186f3",
        "value": "0x0",
        "input": "0x40c10f190000000000000000000000009302ce59d765fee24d91aea8d1a8629ef33b98560000000000000000000000000000000000000000000000056bc75e2d63100000",
        "nonce": "0x69",
        "chainId": "0xaa36a7"
      },
      "additionalContracts": [],
      "isFixedGasLimit": false
    }
  ],
  "receipts": [
    {
      "status": "0x1",
      "cumulativeGasUsed": "0xcf2e4d",
      "logs": [
        {
          "address": "0xf2a58f210956698d5fb3327348801dccbbc7f317",
          "topics": [
            "0xddf252ad1be2c89b69c2b068fc378daa952ba7f163c4a11628f55a4df523b3ef",
            "0x0000000000000000000000000000000000000000000000000000000000000000",
            "0x0000000000000000000000009302ce59d765fee24d91aea8d1a8629ef33b9856"
          ],
          "data": "0x0000000000000000000000000000000000000000000000056bc75e2d63100000",
          "blockHash": "0x38f7d3d1f739ce4ec4a2f5175d149a30d0d55244188cd5679cc7fa9c82b91451",
          "blockNumber": "0x62b0ad",
          "transactionHash": "0x45ed0c0f242da5d0a91c53e20fdfbac92e22f195457f0f88e275371188063285",
          "transactionIndex": "0x38",
          "logIndex": "0x92",
          "removed": false
        }
      ],
      "logsBloom": "0x00000000000000000000000000000000000000000000000000000000000100000000000000000000000040000000000000000000000000008000000000000000000000000000000000000008000000000000000000000000000000000000000000000000020000000000000000000800000000000000000000000010000000000000002000000000000000000000004000000000000000000000000000000000000000000000000000000000000000000000000000000000000000000000000000000002000000000004000000000000000000000000000000000000000020000000000000000000000000000000000000000000000000000000000000000000",
      "type": "0x2",
      "transactionHash": "0x45ed0c0f242da5d0a91c53e20fdfbac92e22f195457f0f88e275371188063285",
      "transactionIndex": "0x38",
      "blockHash": "0x38f7d3d1f739ce4ec4a2f5175d149a30d0d55244188cd5679cc7fa9c82b91451",
      "blockNumber": "0x62b0ad",
      "gasUsed": "0x10b51",
      "effectiveGasPrice": "0x42761cfaf",
      "from": "0x5cdc9010d01d6744dd9213a0e28aa780210ec544",
      "to": "0xf2a58f210956698d5fb3327348801dccbbc7f317",
      "contractAddress": null
    }
  ],
  "libraries": [],
  "pending": [],
  "returns": {},
  "timestamp": 1723218813,
  "chain": 11155111,
  "commit": "772ca82"
}