{
  "transactions": [
    {
      "hash": "0x067c526f00d2cadba6467fd27213bb26d3eccebb47699f4d6a9315748a7696fc",
      "transactionType": "CALL",
      "contractName": null,
      "contractAddress": "0xf2609e2e219e144c1a99f111f8c5f5e9756e1362",
      "function": "safeMint(address)",
      "arguments": [
        "0x15dA197b6A4907B595A704A5b9692e53a7577658"
      ],
      "transaction": {
        "from": "0x5cdc9010d01d6744dd9213a0e28aa780210ec544",
        "to": "0xf2609e2e219e144c1a99f111f8c5f5e9756e1362",
        "gas": "0x14070",
        "value": "0x0",
        "input": "0x40d097c300000000000000000000000015da197b6a4907b595a704a5b9692e53a7577658",
        "nonce": "0x82",
        "chainId": "0xaa36a7"
      },
      "additionalContracts": [],
      "isFixedGasLimit": false
    }
  ],
  "receipts": [
    {
      "status": "0x1",
      "cumulativeGasUsed": "0x15acd8d",
      "logs": [
        {
          "address": "0xf2609e2e219e144c1a99f111f8c5f5e9756e1362",
          "topics": [
            "0xddf252ad1be2c89b69c2b068fc378daa952ba7f163c4a11628f55a4df523b3ef",
            "0x0000000000000000000000000000000000000000000000000000000000000000",
            "0x00000000000000000000000015da197b6a4907b595a704a5b9692e53a7577658",
            "0x000000000000000000000000000000000000000000000000000000000000000d"
          ],
          "data": "0x",
          "blockHash": "0x928192bc8e265d1712bbfb81f8651d142416cef836f13e3ef2c0adcf22fd1b1e",
          "blockNumber": "0x634615",
          "transactionHash": "0x067c526f00d2cadba6467fd27213bb26d3eccebb47699f4d6a9315748a7696fc",
          "transactionIndex": "0x64",
          "logIndex": "0x121",
          "removed": false
        }
      ],
      "logsBloom": "0x00000000000600000040000800000000000000000000000000000000000000000000000000000000000000000000000001000000000000000000000000000000000000000000000000000008000000000002000000000000000000000000000000000100020000000000000000000800000000000000000000000010000000000000000000000000000000000000000000000000000000000000000000000000000000000000000000000000000000000000000200000000000000000000000000000002000000000000000000000000000000000000000000000000000020020000000000000000000000000000000000000000000000000000000000000000",
      "type": "0x2",
      "transactionHash": "0x067c526f00d2cadba6467fd27213bb26d3eccebb47699f4d6a9315748a7696fc",
      "transactionIndex": "0x64",
      "blockHash": "0x928192bc8e265d1712bbfb81f8651d142416cef836f13e3ef2c0adcf22fd1b1e",
      "blockNumber": "0x634615",
      "gasUsed": "0xe7ff",
      "effectiveGasPrice": "0x1dd8aeabbf",
      "from": "0x5cdc9010d01d6744dd9213a0e28aa780210ec544",
      "to": "0xf2609e2e219e144c1a99f111f8c5f5e9756e1362",
      "contractAddress": null
    }
  ],
  "libraries": [],
  "pending": [],
  "returns": {},
  "timestamp": 1723740279,
  "chain": 11155111,
  "commit": "e058958"
}