{
  "transactions": [
    {
      "hash": "0xf63f49d71a5882ed52ced779ae79b22bf37611d2c16a75cf03f53df996e113ee",
      "transactionType": "CALL",
      "contractName": null,
      "contractAddress": "0xc5daf4084cc8a826bf0010a17e0b4ee9cd447c2d",
      "function": "mint(address,uint256)",
      "arguments": [
        "0x9302ce59d765FeE24D91aEa8d1A8629EF33b9856",
        "100000000000000000000"
      ],
      "transaction": {
        "from": "0x5cdc9010d01d6744dd9213a0e28aa780210ec544",
        "to": "0xc5daf4084cc8a826bf0010a17e0b4ee9cd447c2d",
        "gas": "0x1213d",
        "value": "0x0",
        "input": "0x40c10f190000000000000000000000009302ce59d765fee24d91aea8d1a8629ef33b98560000000000000000000000000000000000000000000000056bc75e2d63100000",
        "nonce": "0x67",
        "chainId": "0xaa36a7"
      },
      "additionalContracts": [],
      "isFixedGasLimit": false
    }
  ],
  "receipts": [
    {
      "status": "0x1",
      "cumulativeGasUsed": "0x8c5bc5",
      "logs": [
        {
          "address": "0xc5daf4084cc8a826bf0010a17e0b4ee9cd447c2d",
          "topics": [
            "0xddf252ad1be2c89b69c2b068fc378daa952ba7f163c4a11628f55a4df523b3ef",
            "0x0000000000000000000000000000000000000000000000000000000000000000",
            "0x0000000000000000000000009302ce59d765fee24d91aea8d1a8629ef33b9856"
          ],
          "data": "0x0000000000000000000000000000000000000000000000056bc75e2d63100000",
          "blockHash": "0x57353d12ba0c9d551d2a4e5bb19a120d31e15778184765180b61f2ff23e63754",
          "blockNumber": "0x62b085",
          "transactionHash": "0xf63f49d71a5882ed52ced779ae79b22bf37611d2c16a75cf03f53df996e113ee",
          "transactionIndex": "0x3c",
          "logIndex": "0x6f",
          "removed": false
        }
      ],
      "logsBloom": "0x00000000000000000000000000000000000000000000000000000000000000000000000000000000000040000000000000000000000000000000000000000000000000001000000000000008000000000000000000000400000000000000000000000000020000000000000000000800000000000000000000000010000000000000002000000000000000000000000000000000000000000000000000000000000000000000000000000000000000000000000000000000000000000000000000020002000000000004000000000000000000000000000000000000000020000000000000000000000000000000000000000000000000000000000000000000",
      "type": "0x2",
      "transactionHash": "0xf63f49d71a5882ed52ced779ae79b22bf37611d2c16a75cf03f53df996e113ee",
      "transactionIndex": "0x3c",
      "blockHash": "0x57353d12ba0c9d551d2a4e5bb19a120d31e15778184765180b61f2ff23e63754",
      "blockNumber": "0x62b085",
      "gasUsed": "0xd168",
      "effectiveGasPrice": "0x4cc4ed817",
      "from": "0x5cdc9010d01d6744dd9213a0e28aa780210ec544",
      "to": "0xc5daf4084cc8a826bf0010a17e0b4ee9cd447c2d",
      "contractAddress": null
    }
  ],
  "libraries": [],
  "pending": [],
  "returns": {},
  "timestamp": 1723218278,
  "chain": 11155111,
  "commit": "88f8f2c"
}