{
  "transactions": [
    {
      "hash": "0x800905136f8d55d8e47980fc361d02f0bd01e4e3c68a2c0ede301022b31c55c9",
      "transactionType": "CALL",
      "contractName": null,
      "contractAddress": "0xf2609e2e219e144c1a99f111f8c5f5e9756e1362",
      "function": "safeMint(address)",
      "arguments": [
        "0x15dA197b6A4907B595A704A5b9692e53a7577658"
      ],
      "transaction": {
        "from": "0x5cdc9010d01d6744dd9213a0e28aa780210ec544",
        "to": "0xf2609e2e219e144c1a99f111f8c5f5e9756e1362",
        "gas": "0x14070",
        "value": "0x0",
        "input": "0x40d097c300000000000000000000000015da197b6a4907b595a704a5b9692e53a7577658",
        "nonce": "0x7c",
        "chainId": "0xaa36a7"
      },
      "additionalContracts": [],
      "isFixedGasLimit": false
    }
  ],
  "receipts": [
    {
      "status": "0x1",
      "cumulativeGasUsed": "0x72143c",
      "logs": [
        {
          "address": "0xf2609e2e219e144c1a99f111f8c5f5e9756e1362",
          "topics": [
            "0xddf252ad1be2c89b69c2b068fc378daa952ba7f163c4a11628f55a4df523b3ef",
            "0x0000000000000000000000000000000000000000000000000000000000000000",
            "0x00000000000000000000000015da197b6a4907b595a704a5b9692e53a7577658",
            "0x0000000000000000000000000000000000000000000000000000000000000007"
          ],
          "data": "0x",
          "blockHash": "0xf4aceb51131462cdb3133d21d2921f62c2ed927b3d7a3dc423fc2fbcff3b68de",
          "blockNumber": "0x6344e4",
          "transactionHash": "0x800905136f8d55d8e47980fc361d02f0bd01e4e3c68a2c0ede301022b31c55c9",
          "transactionIndex": "0x38",
          "logIndex": "0x46",
          "removed": false
        }
      ],
      "logsBloom": "0x00000000000600000000000800000000000000000000000000000000000000000000000000000000000000000000000001001000000000000000000000000000000020000000000000000008000000000000000000000000000000000000000000000100020000000000000000000800000000000000000000000010000000000000000000000000000000000000000000000000000000000000000000000000000000000000000000000000000000000000000200000000000000000000000000000002000000000000000000000000000000000000000000000100000020000000000000000000000000000000000000000000000000000000000000000000",
      "type": "0x2",
      "transactionHash": "0x800905136f8d55d8e47980fc361d02f0bd01e4e3c68a2c0ede301022b31c55c9",
      "transactionIndex": "0x38",
      "blockHash": "0xf4aceb51131462cdb3133d21d2921f62c2ed927b3d7a3dc423fc2fbcff3b68de",
      "blockNumber": "0x6344e4",
      "gasUsed": "0xe7ff",
      "effectiveGasPrice": "0x1b4caf6a2",
      "from": "0x5cdc9010d01d6744dd9213a0e28aa780210ec544",
      "to": "0xf2609e2e219e144c1a99f111f8c5f5e9756e1362",
      "contractAddress": null
    }
  ],
  "libraries": [],
  "pending": [],
  "returns": {},
  "timestamp": 1723735729,
  "chain": 11155111,
  "commit": "e058958"
}