{
  "transactions": [
    {
      "hash": "0x80fdbbeb95f4fbf26c68607f8ef5414e79a399982fbc497874c05cd11578dde5",
      "transactionType": "CALL",
      "contractName": null,
      "contractAddress": "0xf2609e2e219e144c1a99f111f8c5f5e9756e1362",
      "function": "safeMint(address)",
      "arguments": [
        "0x15dA197b6A4907B595A704A5b9692e53a7577658"
      ],
      "transaction": {
        "from": "0x5cdc9010d01d6744dd9213a0e28aa780210ec544",
        "to": "0xf2609e2e219e144c1a99f111f8c5f5e9756e1362",
        "gas": "0x14070",
        "value": "0x0",
        "input": "0x40d097c300000000000000000000000015da197b6a4907b595a704a5b9692e53a7577658",
        "nonce": "0x7a",
        "chainId": "0xaa36a7"
      },
      "additionalContracts": [],
      "isFixedGasLimit": false
    }
  ],
  "receipts": [
    {
      "status": "0x1",
      "cumulativeGasUsed": "0x8d1ab6",
      "logs": [
        {
          "address": "0xf2609e2e219e144c1a99f111f8c5f5e9756e1362",
          "topics": [
            "0xddf252ad1be2c89b69c2b068fc378daa952ba7f163c4a11628f55a4df523b3ef",
            "0x0000000000000000000000000000000000000000000000000000000000000000",
            "0x00000000000000000000000015da197b6a4907b595a704a5b9692e53a7577658",
            "0x0000000000000000000000000000000000000000000000000000000000000005"
          ],
          "data": "0x",
          "blockHash": "0x2229db5af7af6d434e8c88e9c2652afc011067cd341025f84d3e62db4ec8a79c",
          "blockNumber": "0x6344db",
          "transactionHash": "0x80fdbbeb95f4fbf26c68607f8ef5414e79a399982fbc497874c05cd11578dde5",
          "transactionIndex": "0x52",
          "logIndex": "0x5e",
          "removed": false
        }
      ],
      "logsBloom": "0x00000000000600000000000800000000000000000000000000000000000000000000000000000000000000000000000001000000000000000000000000000000000010000000000000000008000000000000000000000000000000000000000000000100020000000000000000000800000000000000000000000010000000000000000000000000000000000000001000000800000000000000000000000000000000000000000000000000000000000000000200000000000000000000000000000002000000000000000000000000000000000000000000000000000020000000000000000000000000000000000000000000000000000000000000000000",
      "type": "0x2",
      "transactionHash": "0x80fdbbeb95f4fbf26c68607f8ef5414e79a399982fbc497874c05cd11578dde5",
      "transactionIndex": "0x52",
      "blockHash": "0x2229db5af7af6d434e8c88e9c2652afc011067cd341025f84d3e62db4ec8a79c",
      "blockNumber": "0x6344db",
      "gasUsed": "0xe7ff",
      "effectiveGasPrice": "0x17c27df0d",
      "from": "0x5cdc9010d01d6744dd9213a0e28aa780210ec544",
      "to": "0xf2609e2e219e144c1a99f111f8c5f5e9756e1362",
      "contractAddress": null
    }
  ],
  "libraries": [],
  "pending": [],
  "returns": {},
  "timestamp": 1723735577,
  "chain": 11155111,
  "commit": "e204481"
}