{
  "transactions": [
    {
      "hash": "0x80503a1a995d942248ceed25f895593780e4ae942d2120a977ca51c3b56448bd",
      "transactionType": "CALL",
      "contractName": null,
      "contractAddress": "0xf2609e2e219e144c1a99f111f8c5f5e9756e1362",
      "function": "safeMint(address)",
      "arguments": [
        "0x15dA197b6A4907B595A704A5b9692e53a7577658"
      ],
      "transaction": {
        "from": "0x5cdc9010d01d6744dd9213a0e28aa780210ec544",
        "to": "0xf2609e2e219e144c1a99f111f8c5f5e9756e1362",
        "gas": "0x14070",
        "value": "0x0",
        "input": "0x40d097c300000000000000000000000015da197b6a4907b595a704a5b9692e53a7577658",
        "nonce": "0x78",
        "chainId": "0xaa36a7"
      },
      "additionalContracts": [],
      "isFixedGasLimit": false
    }
  ],
  "receipts": [
    {
      "status": "0x1",
      "cumulativeGasUsed": "0x599803",
      "logs": [
        {
          "address": "0xf2609e2e219e144c1a99f111f8c5f5e9756e1362",
          "topics": [
            "0xddf252ad1be2c89b69c2b068fc378daa952ba7f163c4a11628f55a4df523b3ef",
            "0x0000000000000000000000000000000000000000000000000000000000000000",
            "0x00000000000000000000000015da197b6a4907b595a704a5b9692e53a7577658",
            "0x0000000000000000000000000000000000000000000000000000000000000003"
          ],
          "data": "0x",
          "blockHash": "0x4147a41333885eb92ec730f030de44f583a4886ec170756fd0c73f776f99c86d",
          "blockNumber": "0x634214",
          "transactionHash": "0x80503a1a995d942248ceed25f895593780e4ae942d2120a977ca51c3b56448bd",
          "transactionIndex": "0x31",
          "logIndex": "0x4d",
          "removed": false
        }
      ],
      "logsBloom": "0x00000000000600000000000800000000000000000000000000000000000000000000000000000000000000000000000001000000020000000000000000000000000000000000000000000008000000000000000000000000000000000000000000000100020000000000000000000800000000000000000000000010000000000000000000000000000000000000000000000000000000000000000000000000000000000000000000000000000000000000000200800000000000000000400000000002000000000000000000000000000000000000000000000000000020000000000000000000000000000000000000000000000000000000000000000000",
      "type": "0x2",
      "transactionHash": "0x80503a1a995d942248ceed25f895593780e4ae942d2120a977ca51c3b56448bd",
      "transactionIndex": "0x31",
      "blockHash": "0x4147a41333885eb92ec730f030de44f583a4886ec170756fd0c73f776f99c86d",
      "blockNumber": "0x634214",
      "gasUsed": "0xe7ff",
      "effectiveGasPrice": "0xb565ca9b",
      "from": "0x5cdc9010d01d6744dd9213a0e28aa780210ec544",
      "to": "0xf2609e2e219e144c1a99f111f8c5f5e9756e1362",
      "contractAddress": null
    }
  ],
  "libraries": [],
  "pending": [],
  "returns": {},
  "timestamp": 1723725628,
  "chain": 11155111,
  "commit": "e204481"
}