{
  "transactions": [
    {
      "hash": "0xf667e64db0c1cd422ca31be36490a020decf3ace142d3008d1887b1ef990bd5e",
      "transactionType": "CALL",
      "contractName": null,
      "contractAddress": "0xf2609e2e219e144c1a99f111f8c5f5e9756e1362",
      "function": "safeMint(address)",
      "arguments": [
        "0x15dA197b6A4907B595A704A5b9692e53a7577658"
      ],
      "transaction": {
        "from": "0x5cdc9010d01d6744dd9213a0e28aa780210ec544",
        "to": "0xf2609e2e219e144c1a99f111f8c5f5e9756e1362",
        "gas": "0x14070",
        "value": "0x0",
        "input": "0x40d097c300000000000000000000000015da197b6a4907b595a704a5b9692e53a7577658",
        "nonce": "0x7f",
        "chainId": "0xaa36a7"
      },
      "additionalContracts": [],
      "isFixedGasLimit": false
    }
  ],
  "receipts": [
    {
      "status": "0x1",
      "cumulativeGasUsed": "0x5845ee",
      "logs": [
        {
          "address": "0xf2609e2e219e144c1a99f111f8c5f5e9756e1362",
          "topics": [
            "0xddf252ad1be2c89b69c2b068fc378daa952ba7f163c4a11628f55a4df523b3ef",
            "0x0000000000000000000000000000000000000000000000000000000000000000",
            "0x00000000000000000000000015da197b6a4907b595a704a5b9692e53a7577658",
            "0x000000000000000000000000000000000000000000000000000000000000000a"
          ],
          "data": "0x",
          "blockHash": "0xdad15f6e58afd9baae9c1007de218619074fac4b486b8fdf6ceeed5ccd0450dc",
          "blockNumber": "0x634595",
          "transactionHash": "0xf667e64db0c1cd422ca31be36490a020decf3ace142d3008d1887b1ef990bd5e",
          "transactionIndex": "0x1e",
          "logIndex": "0x70",
          "removed": false
        }
      ],
      "logsBloom": "0x00000000000600000000000800000000000000000000000000000000000000000000000000000000000000000000000001000000040000000020000000000000000000000000000000000008000000000000000000000000000000000000000000000100020000000000000000000800000000000000000000000010000000000000000000000000010000000000000000000000000000000000000000000000000000000000000000000000000000000000000200000000000000000000000000000002000000000000000000000000000000000000000000000000000020000000000000000000000000000000000000000000000000000000000000000000",
      "type": "0x2",
      "transactionHash": "0xf667e64db0c1cd422ca31be36490a020decf3ace142d3008d1887b1ef990bd5e",
      "transactionIndex": "0x1e",
      "blockHash": "0xdad15f6e58afd9baae9c1007de218619074fac4b486b8fdf6ceeed5ccd0450dc",
      "blockNumber": "0x634595",
      "gasUsed": "0xe7ff",
      "effectiveGasPrice": "0x13d75a8eb4",
      "from": "0x5cdc9010d01d6744dd9213a0e28aa780210ec544",
      "to": "0xf2609e2e219e144c1a99f111f8c5f5e9756e1362",
      "contractAddress": null
    }
  ],
  "libraries": [],
  "pending": [],
  "returns": {},
  "timestamp": 1723738362,
  "chain": 11155111,
  "commit": "e058958"
}