{
  "transactions": [
    {
      "hash": "0xac95e489fce4ee910dd11fd7ae8fc9d25f52eefaa24abef368df281ee7daaa0b",
      "transactionType": "CALL",
      "contractName": null,
      "contractAddress": "0xc5daf4084cc8a826bf0010a17e0b4ee9cd447c2d",
      "function": "mint(address,uint256)",
      "arguments": [
        "0x5Cdc9010D01d6744Dd9213A0e28aa780210eC544",
        "100000000000000000000"
      ],
      "transaction": {
        "from": "0x5cdc9010d01d6744dd9213a0e28aa780210ec544",
        "to": "0xc5daf4084cc8a826bf0010a17e0b4ee9cd447c2d",
        "gas": "0xc4f9",
        "value": "0x0",
        "input": "0x40c10f190000000000000000000000005cdc9010d01d6744dd9213a0e28aa780210ec5440000000000000000000000000000000000000000000000056bc75e2d63100000",
        "nonce": "0x66",
        "chainId": "0xaa36a7"
      },
      "additionalContracts": [],
      "isFixedGasLimit": false
    }
  ],
  "receipts": [
    {
      "status": "0x1",
      "cumulativeGasUsed": "0x5e1f79",
      "logs": [
        {
          "address": "0xc5daf4084cc8a826bf0010a17e0b4ee9cd447c2d",
          "topics": [
            "0xddf252ad1be2c89b69c2b068fc378daa952ba7f163c4a11628f55a4df523b3ef",
            "0x0000000000000000000000000000000000000000000000000000000000000000",
            "0x0000000000000000000000005cdc9010d01d6744dd9213a0e28aa780210ec544"
          ],
          "data": "0x0000000000000000000000000000000000000000000000056bc75e2d63100000",
          "blockHash": "0xc326c381e4cff1602f76ee720446f86ca474748515fc7e29a025b0593bb04c9c",
          "blockNumber": "0x62b079",
          "transactionHash": "0xac95e489fce4ee910dd11fd7ae8fc9d25f52eefaa24abef368df281ee7daaa0b",
          "transactionIndex": "0x2a",
          "logIndex": "0x75",
          "removed": false
        }
      ],
      "logsBloom": "0x00000000000000000000000000000000000000000000000000000000000000000200000000000000000000200000000000000000000000000000000000000000000000001000000000000008000000000000000000400400000000000000000000000000020000000000000000000800000000000000000000000010000000000000000000000000000000000000000000000000000000000000000000000000000000000000000000000000000000000000000000000000000000000000000000020002000000000000000000000000000000000000000000000000000020000000000000000000000000000000000000000000000000000000000000000000",
      "type": "0x2",
      "transactionHash": "0xac95e489fce4ee910dd11fd7ae8fc9d25f52eefaa24abef368df281ee7daaa0b",
      "transactionIndex": "0x2a",
      "blockHash": "0xc326c381e4cff1602f76ee720446f86ca474748515fc7e29a025b0593bb04c9c",
      "blockNumber": "0x62b079",
      "gasUsed": "0x8e9c",
      "effectiveGasPrice": "0x43d310d98",
      "from": "0x5cdc9010d01d6744dd9213a0e28aa780210ec544",
      "to": "0xc5daf4084cc8a826bf0010a17e0b4ee9cd447c2d",
      "contractAddress": null
    }
  ],
  "libraries": [],
  "pending": [],
  "returns": {},
  "timestamp": 1723218097,
  "chain": 11155111,
  "commit": "8951e43"
}