{
  "transactions": [
    {
      "hash": "0x8b897505f71eeacfa47ed13dc20713e303ef7fdd7df9c761b2e03702b47deb0c",
      "transactionType": "CALL",
      "contractName": null,
      "contractAddress": "0x6fb249d74e84e1b1bb69eb4c680e563772534488",
      "function": "safeMint(address)",
      "arguments": [
        "0x15dA197b6A4907B595A704A5b9692e53a7577658"
      ],
      "transaction": {
        "from": "0x5cdc9010d01d6744dd9213a0e28aa780210ec544",
        "to": "0x6fb249d74e84e1b1bb69eb4c680e563772534488",
        "gas": "0x1f8f8",
        "value": "0x0",
        "input": "0x40d097c300000000000000000000000015da197b6a4907b595a704a5b9692e53a7577658",
        "nonce": "0x74",
        "chainId": "0xaa36a7"
      },
      "additionalContracts": [],
      "isFixedGasLimit": false
    }
  ],
  "receipts": [
    {
      "status": "0x1",
      "cumulativeGasUsed": "0x64368a",
      "logs": [
        {
          "address": "0x6fb249d74e84e1b1bb69eb4c680e563772534488",
          "topics": [
            "0xddf252ad1be2c89b69c2b068fc378daa952ba7f163c4a11628f55a4df523b3ef",
            "0x0000000000000000000000000000000000000000000000000000000000000000",
            "0x00000000000000000000000015da197b6a4907b595a704a5b9692e53a7577658",
            "0x0000000000000000000000000000000000000000000000000000000000000000"
          ],
          "data": "0x",
          "blockHash": "0xe88fc7f4fbc4d629c595a7e796cc95314d42e2e37917c2bab8ec77cddd679176",
          "blockNumber": "0x6341ed",
          "transactionHash": "0x8b897505f71eeacfa47ed13dc20713e303ef7fdd7df9c761b2e03702b47deb0c",
          "transactionIndex": "0x3d",
          "logIndex": "0x7c",
          "removed": false
        }
      ],
      "logsBloom": "0x00000000000400000000000800000000000000000000000000000000000000000000000000000000000000000000000000000000020000000000000000000000000000000000000000000008000000000000000000000000000000000000000000000108020000000000000000000800000000000000000000000010000000000000000000000000000400000000000000000000000000000000000000000000000000000000000000000000000000000000000000000000000000000000000000000002000000000000000000000000000000000000000000000000000020000000000000000000000000000000000000000000000000000000000000000000",
      "type": "0x2",
      "transactionHash": "0x8b897505f71eeacfa47ed13dc20713e303ef7fdd7df9c761b2e03702b47deb0c",
      "transactionIndex": "0x3d",
      "blockHash": "0xe88fc7f4fbc4d629c595a7e796cc95314d42e2e37917c2bab8ec77cddd679176",
      "blockNumber": "0x6341ed",
      "gasUsed": "0x16d97",
      "effectiveGasPrice": "0xbfc17180",
      "from": "0x5cdc9010d01d6744dd9213a0e28aa780210ec544",
      "to": "0x6fb249d74e84e1b1bb69eb4c680e563772534488",
      "contractAddress": null
    }
  ],
  "libraries": [],
  "pending": [],
  "returns": {},
  "timestamp": 1723725123,
  "chain": 11155111,
  "commit": "e204481"
}