{
  "transactions": [
    {
      "hash": "0xd6654afff92f7b5a172a2e3f8486bee94797600a7126c6227ea90a5fafcb4be2",
      "transactionType": "CALL",
      "contractName": null,
      "contractAddress": "0xf2609e2e219e144c1a99f111f8c5f5e9756e1362",
      "function": "safeMint(address)",
      "arguments": [
        "0x15dA197b6A4907B595A704A5b9692e53a7577658"
      ],
      "transaction": {
        "from": "0x5cdc9010d01d6744dd9213a0e28aa780210ec544",
        "to": "0xf2609e2e219e144c1a99f111f8c5f5e9756e1362",
        "gas": "0x14070",
        "value": "0x0",
        "input": "0x40d097c300000000000000000000000015da197b6a4907b595a704a5b9692e53a7577658",
        "nonce": "0x80",
        "chainId": "0xaa36a7"
      },
      "additionalContracts": [],
      "isFixedGasLimit": false
    }
  ],
  "receipts": [
    {
      "status": "0x1",
      "cumulativeGasUsed": "0x302ef7",
      "logs": [
        {
          "address": "0xf2609e2e219e144c1a99f111f8c5f5e9756e1362",
          "topics": [
            "0xddf252ad1be2c89b69c2b068fc378daa952ba7f163c4a11628f55a4df523b3ef",
            "0x0000000000000000000000000000000000000000000000000000000000000000",
            "0x00000000000000000000000015da197b6a4907b595a704a5b9692e53a7577658",
            "0x000000000000000000000000000000000000000000000000000000000000000b"
          ],
          "data": "0x",
          "blockHash": "0xd35e9d7baa10cae26c81708470fdc1b191304de7eafdc2ac25f607b14703ce47",
          "blockNumber": "0x634600",
          "transactionHash": "0xd6654afff92f7b5a172a2e3f8486bee94797600a7126c6227ea90a5fafcb4be2",
          "transactionIndex": "0x1a",
          "logIndex": "0x15",
          "removed": false
        }
      ],
      "logsBloom": "0x00000000000600000000004800000000000000000000000000000000000000000000000000000000000000000000000001000000000000000000000000000000000000000000000000000008000000000000000000000000000000000000000000000100020000000000000000000800000000000000000000000010000000000000000000000000000000000000000000000000000000000000000000000000000000000000000000000000000000000000000200000000000000000000000000000002000000000000000000000000002000000000000000000000000020000000000000000000000000000000000000000000000000040000000000000000",
      "type": "0x2",
      "transactionHash": "0xd6654afff92f7b5a172a2e3f8486bee94797600a7126c6227ea90a5fafcb4be2",
      "transactionIndex": "0x1a",
      "blockHash": "0xd35e9d7baa10cae26c81708470fdc1b191304de7eafdc2ac25f607b14703ce47",
      "blockNumber": "0x634600",
      "gasUsed": "0xe7ff",
      "effectiveGasPrice": "0x23573a94dd",
      "from": "0x5cdc9010d01d6744dd9213a0e28aa780210ec544",
      "to": "0xf2609e2e219e144c1a99f111f8c5f5e9756e1362",
      "contractAddress": null
    }
  ],
  "libraries": [],
  "pending": [],
  "returns": {},
  "timestamp": 1723739954,
  "chain": 11155111,
  "commit": "e058958"
}