{
  "transactions": [
    {
      "hash": "0xcb13efe7aeb18c03b474f9973cf21ca1afcbe121898ef3192c5fa7794cfb3a2c",
      "transactionType": "CALL",
      "contractName": null,
      "contractAddress": "0xf2609e2e219e144c1a99f111f8c5f5e9756e1362",
      "function": "safeMint(address)",
      "arguments": [
        "0x15dA197b6A4907B595A704A5b9692e53a7577658"
      ],
      "transaction": {
        "from": "0x5cdc9010d01d6744dd9213a0e28aa780210ec544",
        "to": "0xf2609e2e219e144c1a99f111f8c5f5e9756e1362",
        "gas": "0x14070",
        "value": "0x0",
        "input": "0x40d097c300000000000000000000000015da197b6a4907b595a704a5b9692e53a7577658",
        "nonce": "0x84",
        "chainId": "0xaa36a7"
      },
      "additionalContracts": [],
      "isFixedGasLimit": false
    }
  ],
  "receipts": [
    {
      "status": "0x1",
      "cumulativeGasUsed": "0x714e40",
      "logs": [
        {
          "address": "0xf2609e2e219e144c1a99f111f8c5f5e9756e1362",
          "topics": [
            "0xddf252ad1be2c89b69c2b068fc378daa952ba7f163c4a11628f55a4df523b3ef",
            "0x0000000000000000000000000000000000000000000000000000000000000000",
            "0x00000000000000000000000015da197b6a4907b595a704a5b9692e53a7577658",
            "0x000000000000000000000000000000000000000000000000000000000000000f"
          ],
          "data": "0x",
          "blockHash": "0x8ee6d4aba24d7df5e500c79b4dc17091b6c5ff8f0f8c1046575f58eb317d6d3d",
          "blockNumber": "0x634693",
          "transactionHash": "0xcb13efe7aeb18c03b474f9973cf21ca1afcbe121898ef3192c5fa7794cfb3a2c",
          "transactionIndex": "0x49",
          "logIndex": "0x96",
          "removed": false
        }
      ],
      "logsBloom": "0x00000000000600000000000800000000000000000000000000000000000000000000000000000000000000000000000001000000000000000000000000000000000000000000000000000008000000000000000000000000000000000002000000000100020000000000000000000800000000000000000000000010000000000000000000000800000000000000000000000000000000000000000000000000000000000000000000000000000000000000000200000000000000000000000000000002000000000000000000000000000000000000000000000000000020000000000200000000000000000000000000000000000000000000000000000000",
      "type": "0x2",
      "transactionHash": "0xcb13efe7aeb18c03b474f9973cf21ca1afcbe121898ef3192c5fa7794cfb3a2c",
      "transactionIndex": "0x49",
      "blockHash": "0x8ee6d4aba24d7df5e500c79b4dc17091b6c5ff8f0f8c1046575f58eb317d6d3d",
      "blockNumber": "0x634693",
      "gasUsed": "0xe7ff",
      "effectiveGasPrice": "0x3b8c9b7c3",
      "from": "0x5cdc9010d01d6744dd9213a0e28aa780210ec544",
      "to": "0xf2609e2e219e144c1a99f111f8c5f5e9756e1362",
      "contractAddress": null
    }
  ],
  "libraries": [],
  "pending": [],
  "returns": {},
  "timestamp": 1723742091,
  "chain": 11155111,
  "commit": "e058958"
}